{
  "contractName": "Student",
  "abi": [
    {
      "anonymous": false,
      "inputs": [
        {
          "indexed": true,
          "name": "from",
          "type": "address"
        },
        {
          "indexed": false,
          "name": "fname",
          "type": "string"
        },
        {
          "indexed": false,
          "name": "lname",
          "type": "string"
        },
        {
          "indexed": false,
          "name": "bob",
          "type": "string"
        }
      ],
      "name": "Added",
      "type": "event",
      "signature": "0x034f63626985be1c05d4cacbc0816a9d7ddfae322fde35c3f39b2c5f440ef645"
    },
    {
      "constant": false,
      "inputs": [
        {
          "name": "fname",
          "type": "string"
        },
        {
          "name": "lname",
          "type": "string"
        },
        {
          "name": "dob",
          "type": "string"
        }
      ],
      "name": "setStudent",
      "outputs": [],
      "payable": false,
      "stateMutability": "nonpayable",
      "type": "function",
      "signature": "0x78cfaff2"
    },
    {
      "constant": true,
      "inputs": [],
      "name": "getStudent",
      "outputs": [
        {
          "name": "",
          "type": "string"
        },
        {
          "name": "",
          "type": "string"
        },
        {
          "name": "",
          "type": "string"
        }
      ],
      "payable": false,
      "stateMutability": "view",
      "type": "function",
      "signature": "0xb439548d"
    }
  ],
  "bytecode": "0x608060405234801561001057600080fd5b50610841806100206000396000f3fe60806040526004361061004c576000357c0100000000000000000000000000000000000000000000000000000000900463ffffffff16806378cfaff214610051578063b439548d14610247575b600080fd5b34801561005d57600080fd5b506102456004803603606081101561007457600080fd5b810190808035906020019064010000000081111561009157600080fd5b8201836020820111156100a357600080fd5b803590602001918460018302840111640100000000831117156100c557600080fd5b91908080601f016020809104026020016040519081016040528093929190818152602001838380828437600081840152601f19601f8201169050808301925050505050505091929192908035906020019064010000000081111561012857600080fd5b82018360208201111561013a57600080fd5b8035906020019184600183028401116401000000008311171561015c57600080fd5b91908080601f016020809104026020016040519081016040528093929190818152602001838380828437600081840152601f19601f820116905080830192505050505050509192919290803590602001906401000000008111156101bf57600080fd5b8201836020820111156101d157600080fd5b803590602001918460018302840111640100000000831117156101f357600080fd5b91908080601f016020809104026020016040519081016040528093929190818152602001838380828437600081840152601f19601f8201169050808301925050505050505091929192905050506103af565b005b34801561025357600080fd5b5061025c610586565b60405180806020018060200180602001848103845287818151815260200191508051906020019080838360005b838110156102a4578082015181840152602081019050610289565b50505050905090810190601f1680156102d15780820380516001836020036101000a031916815260200191505b50848103835286818151815260200191508051906020019080838360005b8381101561030a5780820151818401526020810190506102ef565b50505050905090810190601f1680156103375780820380516001836020036101000a031916815260200191505b50848103825285818151815260200191508051906020019080838360005b83811015610370578082015181840152602081019050610355565b50505050905090810190601f16801561039d5780820380516001836020036101000a031916815260200191505b50965050505050505060405180910390f35b82600090805190602001906103c5929190610770565b5081600190805190602001906103dc929190610770565b5080600290805190602001906103f3929190610770565b503373ffffffffffffffffffffffffffffffffffffffff167f034f63626985be1c05d4cacbc0816a9d7ddfae322fde35c3f39b2c5f440ef64584848460405180806020018060200180602001848103845287818151815260200191508051906020019080838360005b8381101561047757808201518184015260208101905061045c565b50505050905090810190601f1680156104a45780820380516001836020036101000a031916815260200191505b50848103835286818151815260200191508051906020019080838360005b838110156104dd5780820151818401526020810190506104c2565b50505050905090810190601f16801561050a5780820380516001836020036101000a031916815260200191505b50848103825285818151815260200191508051906020019080838360005b83811015610543578082015181840152602081019050610528565b50505050905090810190601f1680156105705780820380516001836020036101000a031916815260200191505b50965050505050505060405180910390a2505050565b6060806060600060016002828054600181600116156101000203166002900480601f0160208091040260200160405190810160405280929190818152602001828054600181600116156101000203166002900480156106265780601f106105fb57610100808354040283529160200191610626565b820191906000526020600020905b81548152906001019060200180831161060957829003601f168201915b50505050509250818054600181600116156101000203166002900480601f0160208091040260200160405190810160405280929190818152602001828054600181600116156101000203166002900480156106c25780601f10610697576101008083540402835291602001916106c2565b820191906000526020600020905b8154815290600101906020018083116106a557829003601f168201915b50505050509150808054600181600116156101000203166002900480601f01602080910402602001604051908101604052809291908181526020018280546001816001161561010002031660029004801561075e5780601f106107335761010080835404028352916020019161075e565b820191906000526020600020905b81548152906001019060200180831161074157829003601f168201915b50505050509050925092509250909192565b828054600181600116156101000203166002900490600052602060002090601f016020900481019282601f106107b157805160ff19168380011785556107df565b828001600101855582156107df579182015b828111156107de5782518255916020019190600101906107c3565b5b5090506107ec91906107f0565b5090565b61081291905b8082111561080e5760008160009055506001016107f6565b5090565b9056fea165627a7a72305820445c7b05a6bcd7cb72a5ad699592e25345372a96a4271867c6f028233bc1ffb30029",
  "source": "// SPDX-License-Identifier: MIT\npragma solidity >=0.4.22 <0.9.0;\n\ncontract Student {\n    string firstName;\n    string lastName;\n    string dateOfBirth;\n\n    function setStudent(string memory fname,\n                        string memory lname,\n                        string memory dob) public {\n        firstName = fname;\n        lastName = lname;\n        dateOfBirth = dob;\n\n        emit Added(msg.sender, fname, lname, dob);\n    }\n\n    function getStudent() public view\n        returns (string memory, string memory, string memory) {\n            return (firstName, lastName, dateOfBirth);\n    }\n\n    event Added(address indexed from, string fname, string lname, string bob);\n}\n",
  "sourcePath": "C:/Users/xhdl5/OneDrive/바탕 화면/git_project/TIL/TIL/KMOOC/SmartContract/Student_Enroll_truffle/contracts/student.sol",
  "compiler": {
    "name": "solc",
    "version": "0.5.0+commit.1d4f565a.Emscripten.clang"
  },
  "schemaVersion": "3.0.2",
  "updatedAt": "2022-06-23T12:14:41.899Z",
  "devdoc": {
    "methods": {}
  },
  "userdoc": {
    "methods": {}
  }
}